{
  "contractName": "ChangeName",
  "abi": [
    {
      "anonymous": false,
      "inputs": [
        {
          "indexed": true,
          "internalType": "address",
          "name": "_address",
          "type": "address"
        },
        {
          "indexed": false,
          "internalType": "string",
          "name": "_fullName",
          "type": "string"
        },
        {
          "indexed": false,
          "internalType": "uint256",
          "name": "_age",
          "type": "uint256"
        },
        {
          "indexed": false,
          "internalType": "string",
          "name": "_university",
          "type": "string"
        }
      ],
      "name": "LogAddDataStudent",
      "type": "event"
    },
    {
      "inputs": [
        {
          "internalType": "address",
          "name": "",
          "type": "address"
        }
      ],
      "name": "students",
      "outputs": [
        {
          "internalType": "string",
          "name": "fullName",
          "type": "string"
        },
        {
          "internalType": "uint256",
          "name": "age",
          "type": "uint256"
        },
        {
          "internalType": "string",
          "name": "university",
          "type": "string"
        }
      ],
      "stateMutability": "view",
      "type": "function",
      "constant": true
    },
    {
      "inputs": [
        {
          "internalType": "string",
          "name": "_fullName",
          "type": "string"
        },
        {
          "internalType": "uint256",
          "name": "_age",
          "type": "uint256"
        },
        {
          "internalType": "string",
          "name": "_university",
          "type": "string"
        }
      ],
      "name": "setData",
      "outputs": [],
      "stateMutability": "nonpayable",
      "type": "function"
    }
  ],
  "bytecode": "0x608060405234801561001057600080fd5b506107c8806100206000396000f3fe608060405234801561001057600080fd5b50600436106100365760003560e01c8063a6c807a91461003b578063f23c54141461006d575b600080fd5b61005560048036038101906100509190610421565b610089565b60405161006493929190610500565b60405180910390f35b610087600480360381019061008291906106a6565b6101c3565b005b60006020528060005260406000206000915090508060000180546100ac90610760565b80601f01602080910402602001604051908101604052809291908181526020018280546100d890610760565b80156101255780601f106100fa57610100808354040283529160200191610125565b820191906000526020600020905b81548152906001019060200180831161010857829003601f168201915b50505050509080600101549080600201805461014090610760565b80601f016020809104026020016040519081016040528092919081815260200182805461016c90610760565b80156101b95780601f1061018e576101008083540402835291602001916101b9565b820191906000526020600020905b81548152906001019060200180831161019c57829003601f168201915b5050505050905083565b826000803373ffffffffffffffffffffffffffffffffffffffff1673ffffffffffffffffffffffffffffffffffffffff168152602001908152602001600020600001908051906020019061021892919061030c565b50816000803373ffffffffffffffffffffffffffffffffffffffff1673ffffffffffffffffffffffffffffffffffffffff16815260200190815260200160002060010181905550806000803373ffffffffffffffffffffffffffffffffffffffff1673ffffffffffffffffffffffffffffffffffffffff16815260200190815260200160002060020190805190602001906102b492919061030c565b503373ffffffffffffffffffffffffffffffffffffffff167feecc2e491bc6b6160ea1a51a931a361df4274d336b2b643f2a5bbc0594f6a8998484846040516102ff93929190610500565b60405180910390a2505050565b82805461031890610760565b90600052602060002090601f01602090048101928261033a5760008555610381565b82601f1061035357805160ff1916838001178555610381565b82800160010185558215610381579182015b82811115610380578251825591602001919060010190610365565b5b50905061038e9190610392565b5090565b5b808211156103ab576000816000905550600101610393565b5090565b6000604051905090565b600080fd5b600080fd5b600073ffffffffffffffffffffffffffffffffffffffff82169050919050565b60006103ee826103c3565b9050919050565b6103fe816103e3565b811461040957600080fd5b50565b60008135905061041b816103f5565b92915050565b600060208284031215610437576104366103b9565b5b60006104458482850161040c565b91505092915050565b600081519050919050565b600082825260208201905092915050565b60005b8381101561048857808201518184015260208101905061046d565b83811115610497576000848401525b50505050565b6000601f19601f8301169050919050565b60006104b98261044e565b6104c38185610459565b93506104d381856020860161046a565b6104dc8161049d565b840191505092915050565b6000819050919050565b6104fa816104e7565b82525050565b6000606082019050818103600083015261051a81866104ae565b905061052960208301856104f1565b818103604083015261053b81846104ae565b9050949350505050565b600080fd5b600080fd5b7f4e487b7100000000000000000000000000000000000000000000000000000000600052604160045260246000fd5b6105878261049d565b810181811067ffffffffffffffff821117156105a6576105a561054f565b5b80604052505050565b60006105b96103af565b90506105c5828261057e565b919050565b600067ffffffffffffffff8211156105e5576105e461054f565b5b6105ee8261049d565b9050602081019050919050565b82818337600083830152505050565b600061061d610618846105ca565b6105af565b9050828152602081018484840111156106395761063861054a565b5b6106448482856105fb565b509392505050565b600082601f83011261066157610660610545565b5b813561067184826020860161060a565b91505092915050565b610683816104e7565b811461068e57600080fd5b50565b6000813590506106a08161067a565b92915050565b6000806000606084860312156106bf576106be6103b9565b5b600084013567ffffffffffffffff8111156106dd576106dc6103be565b5b6106e98682870161064c565b93505060206106fa86828701610691565b925050604084013567ffffffffffffffff81111561071b5761071a6103be565b5b6107278682870161064c565b9150509250925092565b7f4e487b7100000000000000000000000000000000000000000000000000000000600052602260045260246000fd5b6000600282049050600182168061077857607f821691505b6020821081141561078c5761078b610731565b5b5091905056fea26469706673582212206d91929f2d0956625ff855b2e426ff689a8c36057711756bf2ea8320fe5a110964736f6c634300080a0033",
  "immutableReferences": {},
  "source": "pragma solidity >=0.4.0 <0.9.0;\ncontract ChangeName{\n    struct Student{\n        string fullName;\n        uint age;\n        string university;\n    }\n    mapping(address =>Student) public students;\n    event LogAddDataStudent(address indexed _address, string _fullName, uint _age, string _university);\n\n    function setData(string memory _fullName, uint _age, string memory _university) public{\n        students[msg.sender].fullName = _fullName;\n        students[msg.sender].age = _age;\n        students[msg.sender].university = _university;\n        emit LogAddDataStudent(msg.sender, _fullName, _age,_university);\n    }\n}    ",
  "sourcePath": "C:\\Users\\Admin\\OneDrive\\My tnh\\ChangeListName\\contracts\\ChainName.sol",
  "compiler": {
    "name": "solc",
    "version": "0.8.10+commit.fc410830.Emscripten.clang"
  },
  "schemaVersion": "3.4.3",
  "updatedAt": "2022-01-10T03:12:25.837Z",
  "networkType": "ethereum",
  "devdoc": {
    "kind": "dev",
    "methods": {},
    "version": 1
  },
  "userdoc": {
    "kind": "user",
    "methods": {},
    "version": 1
  }
}